{"contracts/BondingCurveExchange.sol":{"BondingCurveExchange":{"abi":[{"inputs":[{"internalType":"address","name":"_token","type":"address"},{"internalType":"address","name":"_creator","type":"address"},{"internalType":"address","name":"_platformAdmin","type":"address"}],"stateMutability":"nonpayable","type":"constructor"},{"inputs":[{"internalType":"address","name":"owner","type":"address"}],"name":"OwnableInvalidOwner","type":"error"},{"inputs":[{"internalType":"address","name":"account","type":"address"}],"name":"OwnableUnauthorizedAccount","type":"error"},{"inputs":[],"name":"ReentrancyGuardReentrantCall","type":"error"},{"anonymous":false,"inputs":[{"indexed":true,"internalType":"address","name":"previousOwner","type":"address"},{"indexed":true,"internalType":"address","name":"newOwner","type":"address"}],"name":"OwnershipTransferred","type":"event"},{"anonymous":false,"inputs":[{"indexed":true,"internalType":"address","name":"buyer","type":"address"},{"indexed":false,"internalType":"uint256","name":"ethSpent","type":"uint256"},{"indexed":false,"internalType":"uint256","name":"tokensReceived","type":"uint256"},{"indexed":false,"internalType":"uint256","name":"creatorFee","type":"uint256"},{"indexed":false,"internalType":"uint256","name":"platformFee","type":"uint256"}],"name":"TokensBought","type":"event"},{"anonymous":false,"inputs":[{"indexed":true,"internalType":"address","name":"seller","type":"address"},{"indexed":false,"internalType":"uint256","name":"tokensSold","type":"uint256"},{"indexed":false,"internalType":"uint256","name":"ethReceived","type":"uint256"},{"indexed":false,"internalType":"uint256","name":"creatorFee","type":"uint256"},{"indexed":false,"internalType":"uint256","name":"platformFee","type":"uint256"}],"name":"TokensSold","type":"event"},{"inputs":[],"name":"CREATOR_FEE_BPS","outputs":[{"internalType":"uint256","name":"","type":"uint256"}],"stateMutability":"view","type":"function"},{"inputs":[],"name":"CURVE_COEFFICIENT","outputs":[{"internalType":"uint256","name":"","type":"uint256"}],"stateMutability":"view","type":"function"},{"inputs":[],"name":"MAX_SUPPLY","outputs":[{"internalType":"uint256","name":"","type":"uint256"}],"stateMutability":"view","type":"function"},{"inputs":[],"name":"PLATFORM_FEE_BPS","outputs":[{"internalType":"uint256","name":"","type":"uint256"}],"stateMutability":"view","type":"function"},{"inputs":[{"internalType":"uint256","name":"minTokensOut","type":"uint256"}],"name":"buy","outputs":[],"stateMutability":"payable","type":"function"},{"inputs":[{"internalType":"uint256","name":"ethAmount","type":"uint256"}],"name":"calculateBuyTokens","outputs":[{"internalType":"uint256","name":"tokensOut","type":"uint256"}],"stateMutability":"view","type":"function"},{"inputs":[{"internalType":"uint256","name":"tokenAmount","type":"uint256"}],"name":"calculateSellTokens","outputs":[{"internalType":"uint256","name":"ethOut","type":"uint256"}],"stateMutability":"view","type":"function"},{"inputs":[{"internalType":"uint256","name":"amount","type":"uint256"}],"name":"calculateTotalFees","outputs":[{"internalType":"uint256","name":"totalFees","type":"uint256"}],"stateMutability":"pure","type":"function"},{"inputs":[],"name":"creator","outputs":[{"internalType":"address","name":"","type":"address"}],"stateMutability":"view","type":"function"},{"inputs":[],"name":"ethReserve","outputs":[{"internalType":"uint256","name":"","type":"uint256"}],"stateMutability":"view","type":"function"},{"inputs":[],"name":"getCurrentPrice","outputs":[{"internalType":"uint256","name":"price","type":"uint256"}],"stateMutability":"view","type":"function"},{"inputs":[],"name":"getInfo","outputs":[{"internalType":"address","name":"tokenAddress","type":"address"},{"internalType":"address","name":"creatorAddress","type":"address"},{"internalType":"address","name":"platformAddress","type":"address"},{"internalType":"uint256","name":"supply","type":"uint256"},{"internalType":"uint256","name":"reserve","type":"uint256"}],"stateMutability":"view","type":"function"},{"inputs":[],"name":"getMarketCap","outputs":[{"internalType":"uint256","name":"marketCap","type":"uint256"}],"stateMutability":"view","type":"function"},{"inputs":[],"name":"owner","outputs":[{"internalType":"address","name":"","type":"address"}],"stateMutability":"view","type":"function"},{"inputs":[],"name":"platformAdmin","outputs":[{"internalType":"address","name":"","type":"address"}],"stateMutability":"view","type":"function"},{"inputs":[],"name":"renounceOwnership","outputs":[],"stateMutability":"nonpayable","type":"function"},{"inputs":[{"internalType":"uint256","name":"tokenAmount","type":"uint256"}],"name":"seedLiquidity","outputs":[],"stateMutability":"payable","type":"function"},{"inputs":[{"internalType":"uint256","name":"tokenAmount","type":"uint256"},{"internalType":"uint256","name":"minEthOut","type":"uint256"}],"name":"sell","outputs":[],"stateMutability":"nonpayable","type":"function"},{"inputs":[],"name":"token","outputs":[{"internalType":"contract IERC20","name":"","type":"address"}],"stateMutability":"view","type":"function"},{"inputs":[],"name":"totalSupplyInCurve","outputs":[{"internalType":"uint256","name":"","type":"uint256"}],"stateMutability":"view","type":"function"},{"inputs":[{"internalType":"address","name":"newOwner","type":"address"}],"name":"transferOwnership","outputs":[],"stateMutability":"nonpayable","type":"function"}],"evm":{"bytecode":{"linkReferences":{},"object":"60e06040523480156200001157600080fd5b50604051620017ca380380620017ca833981016040819052620000349162000211565b600160005533806200006157604051631e4fbdf760e01b8152600060048201526024015b60405180910390fd5b6200006c81620001a2565b506001600160a01b038316620000c55760405162461bcd60e51b815260206004820152601560248201527f496e76616c696420746f6b656e20616464726573730000000000000000000000604482015260640162000058565b6001600160a01b0382166200011d5760405162461bcd60e51b815260206004820152601760248201527f496e76616c69642063726561746f722061646472657373000000000000000000604482015260640162000058565b6001600160a01b038116620001755760405162461bcd60e51b815260206004820152601e60248201527f496e76616c696420706c6174666f726d2061646d696e20616464726573730000604482015260640162000058565b6001600160a01b0380841660805282811660a052811660c0526200019981620001a2565b5050506200025b565b600180546001600160a01b038381166001600160a01b0319831681179093556040519116919082907f8be0079c531659141344cd1fd0a4f28419497f9722a3daafe3b4186f6b6457e090600090a35050565b80516001600160a01b03811681146200020c57600080fd5b919050565b6000806000606084860312156200022757600080fd5b6200023284620001f4565b92506200024260208501620001f4565b91506200025260408501620001f4565b90509250925092565b60805160a05160c0516114f9620002d1600039600081816102800152818161036001528181610bbd01526110100152600081816101410152818161025801528181610af20152610f4501526000818161023301528181610432015281816106d5015281816109bf0152610eaa01526114f96000f3fe60806040526004361061012a5760003560e01c806390825c28116100ab578063d79875eb1161006f578063d79875eb14610398578063d96a094a146103b8578063eb91d37e146103cb578063f1af6faf146103e0578063f2fde38b14610400578063fc0c546a1461042057600080fd5b806390825c2814610311578063c57fed1314610326578063cc3cbd2a14610339578063cdcd7fb51461034e578063d62ccb3f1461038257600080fd5b8063539aa77f116100f2578063539aa77f146101fd5780635a9b0b8914610212578063715018a6146102bc5780637400243c146102d35780638da5cb5b146102f357600080fd5b806302d05d3f1461012f578063258047b41461018057806329456ded146101a757806332cb6b0c146101bd5780635335fda9146101dd575b600080fd5b34801561013b57600080fd5b506101637f000000000000000000000000000000000000000000000000000000000000000081565b6040516001600160a01b0390911681526020015b60405180910390f35b34801561018c57600080fd5b5061019964e8d4a5100081565b604051908152602001610177565b3480156101b357600080fd5b5061019960025481565b3480156101c957600080fd5b506101996b033b2e3c9fd0803ce800000081565b3480156101e957600080fd5b506101996101f8366004611373565b610454565b34801561020957600080fd5b50610199601e81565b34801561021e57600080fd5b50600254600354604080516001600160a01b037f0000000000000000000000000000000000000000000000000000000000000000811682527f0000000000000000000000000000000000000000000000000000000000000000811660208301527f000000000000000000000000000000000000000000000000000000000000000016918101919091526060810192909252608082015260a001610177565b3480156102c857600080fd5b506102d16104db565b005b3480156102df57600080fd5b506101996102ee366004611373565b6104ef565b3480156102ff57600080fd5b506001546001600160a01b0316610163565b34801561031d57600080fd5b5061019961053a565b6102d1610334366004611373565b6105d3565b34801561034557600080fd5b50610199603281565b34801561035a57600080fd5b506101637f000000000000000000000000000000000000000000000000000000000000000081565b34801561038e57600080fd5b5061019960035481565b3480156103a457600080fd5b506102d16103b336600461138c565b610769565b6102d16103c6366004611373565b610cdb565b3480156103d757600080fd5b50610199611129565b3480156103ec57600080fd5b506101996103fb366004611373565b61117a565b34801561040c57600080fd5b506102d161041b3660046113ae565b611226565b34801561042c57600080fd5b506101637f000000000000000000000000000000000000000000000000000000000000000081565b6000811580610464575060025482115b1561047157506000919050565b60008260025461048191906113f4565b9050600064e8d4a51000610495838061140d565b61049f9190611424565b90506003548110156104d4576000816003546104bb91906113f4565b90506104c6816104ef565b6104d090826113f4565b9350505b5050919050565b6104e3611261565b6104ed600061128e565b565b60008061271061050060328561140d565b61050a9190611424565b9050600061271061051c601e8661140d565b6105269190611424565b90506105328183611446565b949350505050565b600060025460000361054c5750600090565b670de0b6b3a7640000306001600160a01b031663eb91d37e6040518163ffffffff1660e01b8152600401602060405180830381865afa158015610593573d6000803e3d6000fd5b505050506040513d601f19601f820116820180604052508101906105b79190611459565b6002546105c4919061140d565b6105ce9190611424565b905090565b6105db611261565b6002541561063a5760405162461bcd60e51b815260206004820152602160248201527f43616e206f6e6c792073656564207768656e20637572766520697320656d70746044820152607960f81b60648201526084015b60405180910390fd5b60008111801561064a5750600034115b6106aa5760405162461bcd60e51b815260206004820152602b60248201527f426f746820746f6b656e20616e642045544820616d6f756e7473206d7573742060448201526a626520706f73697469766560a81b6064820152608401610631565b6002819055346003556040516323b872dd60e01b8152336004820152306024820152604481018290527f00000000000000000000000000000000000000000000000000000000000000006001600160a01b0316906323b872dd906064016020604051808303816000875af1158015610726573d6000803e3d6000fd5b505050506040513d601f19601f8201168201806040525081019061074a9190611472565b6107665760405162461bcd60e51b815260040161063190611494565b50565b6107716112e0565b600082116107cd5760405162461bcd60e51b815260206004820152602360248201527f546f6b656e20616d6f756e74206d75737420626520677265617465722074686160448201526206e20360ec1b6064820152608401610631565b60025482111561082d5760405162461bcd60e51b815260206004820152602560248201527f43616e6e6f742073656c6c206d6f7265207468616e20737570706c7920696e20604482015264637572766560d81b6064820152608401610631565b600061083883610454565b90508181101561089c5760405162461bcd60e51b815260206004820152602960248201527f536c6970706167652070726f74656374696f6e3a20696e73756666696369656e6044820152681d08115512081bdd5d60ba1b6064820152608401610631565b6003548111156108ee5760405162461bcd60e51b815260206004820152601860248201527f496e73756666696369656e7420455448207265736572766500000000000000006044820152606401610631565b600064e8d4a510008460025461090491906113f4565b8560025461091291906113f4565b61091c919061140d565b6109269190611424565b60035461093391906113f4565b9050600061271061094560328461140d565b61094f9190611424565b90506000612710610961601e8561140d565b61096b9190611424565b9050856002600082825461097f91906113f4565b92505081905550826003600082825461099891906113f4565b90915550506040516323b872dd60e01b8152336004820152306024820152604481018790527f00000000000000000000000000000000000000000000000000000000000000006001600160a01b0316906323b872dd906064016020604051808303816000875af1158015610a10573d6000803e3d6000fd5b505050506040513d601f19601f82011682018060405250810190610a349190611472565b610a505760405162461bcd60e51b815260040161063190611494565b604051600090339086908381818185875af1925050503d8060008114610a92576040519150601f19603f3d011682016040523d82523d6000602084013e610a97565b606091505b5050905080610ae85760405162461bcd60e51b815260206004820152601d60248201527f455448207472616e7366657220746f2073656c6c6572206661696c65640000006044820152606401610631565b8215610bb35760007f00000000000000000000000000000000000000000000000000000000000000006001600160a01b03168460405160006040518083038185875af1925050503d8060008114610b5b576040519150601f19603f3d011682016040523d82523d6000602084013e610b60565b606091505b5050905080610bb15760405162461bcd60e51b815260206004820152601b60248201527f43726561746f7220666565207472616e73666572206661696c656400000000006044820152606401610631565b505b8115610c7e5760007f00000000000000000000000000000000000000000000000000000000000000006001600160a01b03168360405160006040518083038185875af1925050503d8060008114610c26576040519150601f19603f3d011682016040523d82523d6000602084013e610c2b565b606091505b5050905080610c7c5760405162461bcd60e51b815260206004820152601c60248201527f506c6174666f726d20666565207472616e73666572206661696c6564000000006044820152606401610631565b505b60408051888152602081018790529081018490526060810183905233907f6b17016c67d28f4cc3a653d895e3b1db09320d6852a46f95aa225059190f7dcd9060800160405180910390a25050505050610cd76001600055565b5050565b610ce36112e0565b60003411610d3d5760405162461bcd60e51b815260206004820152602160248201527f45544820616d6f756e74206d7573742062652067726561746572207468616e206044820152600360fc1b6064820152608401610631565b6000610d483461117a565b905081811015610daf5760405162461bcd60e51b815260206004820152602c60248201527f536c6970706167652070726f74656374696f6e3a20696e73756666696369656e60448201526b1d081d1bdad95b9cc81bdd5d60a21b6064820152608401610631565b6b033b2e3c9fd0803ce800000081600254610dca9190611446565b1115610e0d5760405162461bcd60e51b815260206004820152601260248201527145786365656473206d617820737570706c7960701b6044820152606401610631565b6000612710610e1d60323461140d565b610e279190611424565b90506000612710610e39601e3461140d565b610e439190611424565b9050600081610e5284346113f4565b610e5c91906113f4565b90508360026000828254610e709190611446565b925050819055508060036000828254610e899190611446565b909155505060405163a9059cbb60e01b8152336004820152602481018590527f00000000000000000000000000000000000000000000000000000000000000006001600160a01b03169063a9059cbb906044016020604051808303816000875af1158015610efb573d6000803e3d6000fd5b505050506040513d601f19601f82011682018060405250810190610f1f9190611472565b610f3b5760405162461bcd60e51b815260040161063190611494565b82156110065760007f00000000000000000000000000000000000000000000000000000000000000006001600160a01b03168460405160006040518083038185875af1925050503d8060008114610fae576040519150601f19603f3d011682016040523d82523d6000602084013e610fb3565b606091505b50509050806110045760405162461bcd60e51b815260206004820152601b60248201527f43726561746f7220666565207472616e73666572206661696c656400000000006044820152606401610631565b505b81156110d15760007f00000000000000000000000000000000000000000000000000000000000000006001600160a01b03168360405160006040518083038185875af1925050503d8060008114611079576040519150601f19603f3d011682016040523d82523d6000602084013e61107e565b606091505b50509050806110cf5760405162461bcd60e51b815260206004820152601c60248201527f506c6174666f726d20666565207472616e73666572206661696c6564000000006044820152606401610631565b505b60408051348152602081018690529081018490526060810183905233907fca1d1d2c3f24bb3f0c4ad90bd9823d2465052996d73438c962e227ea67a206d89060800160405180910390a2505050506107666001600055565b600060025460000361115757670de0b6b3a764000061114c64e8d4a5100061130a565b6105c490600261140d565b61116f60025460035461116a9190611424565b61130a565b6105ce90600261140d565b60008160000361118c57506000919050565b6000611197836104ef565b6111a190846113f4565b90506000816003546111b39190611446565b905060006111c961116a64e8d4a510008461140d565b905060025481111561121e576002546111e290826113f4565b93506b033b2e3c9fd0803ce8000000846002546111ff9190611446565b111561121e576002546104d0906b033b2e3c9fd0803ce80000006113f4565b505050919050565b61122e611261565b6001600160a01b03811661125857604051631e4fbdf760e01b815260006004820152602401610631565b6107668161128e565b6001546001600160a01b031633146104ed5760405163118cdaa760e01b8152336004820152602401610631565b600180546001600160a01b038381166001600160a01b0319831681179093556040519116919082907f8be0079c531659141344cd1fd0a4f28419497f9722a3daafe3b4186f6b6457e090600090a35050565b60026000540361130357604051633ee5aeb560e01b815260040160405180910390fd5b6002600055565b60008160000361131c57506000919050565b50806000600261132d836001611446565b6113379190611424565b90505b8181101561136d579050806002816113528186611424565b61135c9190611446565b6113669190611424565b905061133a565b50919050565b60006020828403121561138557600080fd5b5035919050565b6000806040838503121561139f57600080fd5b50508035926020909101359150565b6000602082840312156113c057600080fd5b81356001600160a01b03811681146113d757600080fd5b9392505050565b634e487b7160e01b600052601160045260246000fd5b81810381811115611407576114076113de565b92915050565b8082028115828204841417611407576114076113de565b60008261144157634e487b7160e01b600052601260045260246000fd5b500490565b80820180821115611407576114076113de565b60006020828403121561146b57600080fd5b5051919050565b60006020828403121561148457600080fd5b815180151581146113d757600080fd5b602080825260159082015274151bdad95b881d1c985b9cd9995c8819985a5b1959605a1b60408201526060019056fea2646970667358221220be0b330b78d59bda22310df7d82da1b24030e4faf5deaed22d28d948ad15558364736f6c63430008140033","opcodes":"PUSH1 0xE0 PUSH1 0x40 MSTORE CALLVALUE DUP1 ISZERO PUSH3 0x11 JUMPI PUSH1 0x0 DUP1 REVERT JUMPDEST POP PUSH1 0x40 MLOAD PUSH3 0x17CA CODESIZE SUB DUP1 PUSH3 0x17CA DUP4 CODECOPY DUP2 ADD PUSH1 0x40 DUP2 SWAP1 MSTORE PUSH3 0x34 SWAP2 PUSH3 0x211 JUMP JUMPDEST PUSH1 0x1 PUSH1 0x0 SSTORE CALLER DUP1 PUSH3 0x61 JUMPI PUSH1 0x40 MLOAD PUSH4 0x1E4FBDF7 PUSH1 0xE0 SHL DUP2 MSTORE PUSH1 0x0 PUSH1 0x4 DUP3 ADD MSTORE PUSH1 0x24 ADD JUMPDEST PUSH1 0x40 MLOAD DUP1 SWAP2 SUB SWAP1 REVERT JUMPDEST PUSH3 0x6C DUP2 PUSH3 0x1A2 JUMP JUMPDEST POP PUSH1 0x1 PUSH1 0x1 PUSH1 0xA0 SHL SUB DUP4 AND PUSH3 0xC5 JUMPI PUSH1 0x40 MLOAD PUSH3 0x461BCD PUSH1 0xE5 SHL DUP2 MSTORE PUSH1 0x20 PUSH1 0x4 DUP3 ADD MSTORE PUSH1 0x15 PUSH1 0x24 DUP3 ADD MSTORE PUSH32 0x496E76616C696420746F6B656E20616464726573730000000000000000000000 PUSH1 0x44 DUP3 ADD MSTORE PUSH1 0x64 ADD PUSH3 0x58 JUMP JUMPDEST PUSH1 0x1 PUSH1 0x1 PUSH1 0xA0 SHL SUB DUP3 AND PUSH3 0x11D JUMPI PUSH1 0x40 MLOAD PUSH3 0x461BCD PUSH1 0xE5 SHL DUP2 MSTORE PUSH1 0x20 PUSH1 0x4 DUP3 ADD MSTORE PUSH1 0x17 PUSH1 0x24 DUP3 ADD MSTORE PUSH32 0x496E76616C69642063726561746F722061646472657373000000000000000000 PUSH1 0x44 DUP3 ADD MSTORE PUSH1 0x64 ADD PUSH3 0x58 JUMP JUMPDEST PUSH1 0x1 PUSH1 0x1 PUSH1 0xA0 SHL SUB DUP2 AND PUSH3 0x175 JUMPI PUSH1 0x40 MLOAD PUSH3 0x461BCD PUSH1 0xE5 SHL DUP2 MSTORE PUSH1 0x20 PUSH1 0x4 DUP3 ADD MSTORE PUSH1 0x1E PUSH1 0x24 DUP3 ADD MSTORE PUSH32 0x496E76616C696420706C6174666F726D2061646D696E20616464726573730000 PUSH1 0x44 DUP3 ADD MSTORE PUSH1 0x64 ADD PUSH3 0x58 JUMP JUMPDEST PUSH1 0x1 PUSH1 0x1 PUSH1 0xA0 SHL SUB DUP1 DUP5 AND PUSH1 0x80 MSTORE DUP3 DUP2 AND PUSH1 0xA0 MSTORE DUP2 AND PUSH1 0xC0 MSTORE PUSH3 0x199 DUP2 PUSH3 0x1A2 JUMP JUMPDEST POP POP POP PUSH3 0x25B JUMP JUMPDEST PUSH1 0x1 DUP1 SLOAD PUSH1 0x1 PUSH1 0x1 PUSH1 0xA0 SHL SUB DUP4 DUP2 AND PUSH1 0x1 PUSH1 0x1 PUSH1 0xA0 SHL SUB NOT DUP4 AND DUP2 OR SWAP1 SWAP4 SSTORE PUSH1 0x40 MLOAD SWAP2 AND SWAP2 SWAP1 DUP3 SWAP1 PUSH32 0x8BE0079C531659141344CD1FD0A4F28419497F9722A3DAAFE3B4186F6B6457E0 SWAP1 PUSH1 0x0 SWAP1 LOG3 POP POP JUMP JUMPDEST DUP1 MLOAD PUSH1 0x1 PUSH1 0x1 PUSH1 0xA0 SHL SUB DUP2 AND DUP2 EQ PUSH3 0x20C JUMPI PUSH1 0x0 DUP1 REVERT JUMPDEST SWAP2 SWAP1 POP JUMP JUMPDEST PUSH1 0x0 DUP1 PUSH1 0x0 PUSH1 0x60 DUP5 DUP7 SUB SLT ISZERO PUSH3 0x227 JUMPI PUSH1 0x0 DUP1 REVERT JUMPDEST PUSH3 0x232 DUP5 PUSH3 0x1F4 JUMP JUMPDEST SWAP3 POP PUSH3 0x242 PUSH1 0x20 DUP6 ADD PUSH3 0x1F4 JUMP JUMPDEST SWAP2 POP PUSH3 0x252 PUSH1 0x40 DUP6 ADD PUSH3 0x1F4 JUMP JUMPDEST SWAP1 POP SWAP3 POP SWAP3 POP SWAP3 JUMP JUMPDEST PUSH1 0x80 MLOAD PUSH1 0xA0 MLOAD PUSH1 0xC0 MLOAD PUSH2 0x14F9 PUSH3 0x2D1 PUSH1 0x0 CODECOPY PUSH1 0x0 DUP2 DUP2 PUSH2 0x280 ADD MSTORE DUP2 DUP2 PUSH2 0x360 ADD MSTORE DUP2 DUP2 PUSH2 0xBBD ADD MSTORE PUSH2 0x1010 ADD MSTORE PUSH1 0x0 DUP2 DUP2 PUSH2 0x141 ADD MSTORE DUP2 DUP2 PUSH2 0x258 ADD MSTORE DUP2 DUP2 PUSH2 0xAF2 ADD MSTORE PUSH2 0xF45 ADD MSTORE PUSH1 0x0 DUP2 DUP2 PUSH2 0x233 ADD MSTORE DUP2 DUP2 PUSH2 0x432 ADD MSTORE DUP2 DUP2 PUSH2 0x6D5 ADD MSTORE DUP2 DUP2 PUSH2 0x9BF ADD MSTORE PUSH2 0xEAA ADD MSTORE PUSH2 0x14F9 PUSH1 0x0 RETURN INVALID PUSH1 0x80 PUSH1 0x40 MSTORE PUSH1 0x4 CALLDATASIZE LT PUSH2 0x12A JUMPI PUSH1 0x0 CALLDATALOAD PUSH1 0xE0 SHR DUP1 PUSH4 0x90825C28 GT PUSH2 0xAB JUMPI DUP1 PUSH4 0xD79875EB GT PUSH2 0x6F JUMPI DUP1 PUSH4 0xD79875EB EQ PUSH2 0x398 JUMPI DUP1 PUSH4 0xD96A094A EQ PUSH2 0x3B8 JUMPI DUP1 PUSH4 0xEB91D37E EQ PUSH2 0x3CB JUMPI DUP1 PUSH4 0xF1AF6FAF EQ PUSH2 0x3E0 JUMPI DUP1 PUSH4 0xF2FDE38B EQ PUSH2 0x400 JUMPI DUP1 PUSH4 0xFC0C546A EQ PUSH2 0x420 JUMPI PUSH1 0x0 DUP1 REVERT JUMPDEST DUP1 PUSH4 0x90825C28 EQ PUSH2 0x311 JUMPI DUP1 PUSH4 0xC57FED13 EQ PUSH2 0x326 JUMPI DUP1 PUSH4 0xCC3CBD2A EQ PUSH2 0x339 JUMPI DUP1 PUSH4 0xCDCD7FB5 EQ PUSH2 0x34E JUMPI DUP1 PUSH4 0xD62CCB3F EQ PUSH2 0x382 JUMPI PUSH1 0x0 DUP1 REVERT JUMPDEST DUP1 PUSH4 0x539AA77F GT PUSH2 0xF2 JUMPI DUP1 PUSH4 0x539AA77F EQ PUSH2 0x1FD JUMPI DUP1 PUSH4 0x5A9B0B89 EQ PUSH2 0x212 JUMPI DUP1 PUSH4 0x715018A6 EQ PUSH2 0x2BC JUMPI DUP1 PUSH4 0x7400243C EQ PUSH2 0x2D3 JUMPI DUP1 PUSH4 0x8DA5CB5B EQ PUSH2 0x2F3 JUMPI PUSH1 0x0 DUP1 REVERT JUMPDEST DUP1 PUSH4 0x2D05D3F EQ PUSH2 0x12F JUMPI DUP1 PUSH4 0x258047B4 EQ PUSH2 0x180 JUMPI DUP1 PUSH4 0x29456DED EQ PUSH2 0x1A7 JUMPI DUP1 PUSH4 0x32CB6B0C EQ PUSH2 0x1BD JUMPI DUP1 PUSH4 0x5335FDA9 EQ PUSH2 0x1DD JUMPI JUMPDEST PUSH1 0x0 DUP1 REVERT JUMPDEST CALLVALUE DUP1 ISZERO PUSH2 0x13B JUMPI PUSH1 0x0 DUP1 REVERT JUMPDEST POP PUSH2 0x163 PUSH32 0x0 DUP2 JUMP JUMPDEST PUSH1 0x40 MLOAD PUSH1 0x1 PUSH1 0x1 PUSH1 0xA0 SHL SUB SWAP1 SWAP2 AND DUP2 MSTORE PUSH1 0x20 ADD JUMPDEST PUSH1 0x40 MLOAD DUP1 SWAP2 SUB SWAP1 RETURN JUMPDEST CALLVALUE DUP1 ISZERO PUSH2 0x18C JUMPI PUSH1 0x0 DUP1 REVERT JUMPDEST POP PUSH2 0x199 PUSH5 0xE8D4A51000 DUP2 JUMP JUMPDEST PUSH1 0x40 MLOAD SWAP1 DUP2 MSTORE PUSH1 0x20 ADD PUSH2 0x177 JUMP JUMPDEST CALLVALUE DUP1 ISZERO PUSH2 0x1B3 JUMPI PUSH1 0x0 DUP1 REVERT JUMPDEST POP PUSH2 0x199 PUSH1 0x2 SLOAD DUP2 JUMP JUMPDEST CALLVALUE DUP1 ISZERO PUSH2 0x1C9 JUMPI PUSH1 0x0 DUP1 REVERT JUMPDEST POP PUSH2 0x199 PUSH12 0x33B2E3C9FD0803CE8000000 DUP2 JUMP JUMPDEST CALLVALUE DUP1 ISZERO PUSH2 0x1E9 JUMPI PUSH1 0x0 DUP1 REVERT JUMPDEST POP PUSH2 0x199 PUSH2 0x1F8 CALLDATASIZE PUSH1 0x4 PUSH2 0x1373 JUMP JUMPDEST PUSH2 0x454 JUMP JUMPDEST CALLVALUE DUP1 ISZERO PUSH2 0x209 JUMPI PUSH1 0x0 DUP1 REVERT JUMPDEST POP PUSH2 0x199 PUSH1 0x1E DUP2 JUMP JUMPDEST CALLVALUE DUP1 ISZERO PUSH2 0x21E JUMPI PUSH1 0x0 DUP1 REVERT JUMPDEST POP PUSH1 0x2 SLOAD PUSH1 0x3 SLOAD PUSH1 0x40 DUP1 MLOAD PUSH1 0x1 PUSH1 0x1 PUSH1 0xA0 SHL SUB PUSH32 0x0 DUP2 AND DUP3 MSTORE PUSH32 0x0 DUP2 AND PUSH1 0x20 DUP4 ADD MSTORE PUSH32 0x0 AND SWAP2 DUP2 ADD SWAP2 SWAP1 SWAP2 MSTORE PUSH1 0x60 DUP2 ADD SWAP3 SWAP1 SWAP3 MSTORE PUSH1 0x80 DUP3 ADD MSTORE PUSH1 0xA0 ADD PUSH2 0x177 JUMP JUMPDEST CALLVALUE DUP1 ISZERO PUSH2 0x2C8 JUMPI PUSH1 0x0 DUP1 REVERT JUMPDEST POP PUSH2 0x2D1 PUSH2 0x4DB JUMP JUMPDEST STOP JUMPDEST CALLVALUE DUP1 ISZERO PUSH2 0x2DF JUMPI PUSH1 0x0 DUP1 REVERT JUMPDEST POP PUSH2 0x199 PUSH2 0x2EE CALLDATASIZE PUSH1 0x4 PUSH2 0x1373 JUMP JUMPDEST PUSH2 0x4EF JUMP JUMPDEST CALLVALUE DUP1 ISZERO PUSH2 0x2FF JUMPI PUSH1 0x0 DUP1 REVERT JUMPDEST POP PUSH1 0x1 SLOAD PUSH1 0x1 PUSH1 0x1 PUSH1 0xA0 SHL SUB AND PUSH2 0x163 JUMP JUMPDEST CALLVALUE DUP1 ISZERO PUSH2 0x31D JUMPI PUSH1 0x0 DUP1 REVERT JUMPDEST POP PUSH2 0x199 PUSH2 0x53A JUMP JUMPDEST PUSH2 0x2D1 PUSH2 0x334 CALLDATASIZE PUSH1 0x4 PUSH2 0x1373 JUMP JUMPDEST PUSH2 0x5D3 JUMP JUMPDEST CALLVALUE DUP1 ISZERO PUSH2 0x345 JUMPI PUSH1 0x0 DUP1 REVERT JUMPDEST POP PUSH2 0x199 PUSH1 0x32 DUP2 JUMP JUMPDEST CALLVALUE DUP1 ISZERO PUSH2 0x35A JUMPI PUSH1 0x0 DUP1 REVERT JUMPDEST POP PUSH2 0x163 PUSH32 0x0 DUP2 JUMP JUMPDEST CALLVALUE DUP1 ISZERO PUSH2 0x38E JUMPI PUSH1 0x0 DUP1 REVERT JUMPDEST POP PUSH2 0x199 PUSH1 0x3 SLOAD DUP2 JUMP JUMPDEST CALLVALUE DUP1 ISZERO PUSH2 0x3A4 JUMPI PUSH1 0x0 DUP1 REVERT JUMPDEST POP PUSH2 0x2D1 PUSH2 0x3B3 CALLDATASIZE PUSH1 0x4 PUSH2 0x138C JUMP JUMPDEST PUSH2 0x769 JUMP JUMPDEST PUSH2 0x2D1 PUSH2 0x3C6 CALLDATASIZE PUSH1 0x4 PUSH2 0x1373 JUMP JUMPDEST PUSH2 0xCDB JUMP JUMPDEST CALLVALUE DUP1 ISZERO PUSH2 0x3D7 JUMPI PUSH1 0x0 DUP1 REVERT JUMPDEST POP PUSH2 0x199 PUSH2 0x1129 JUMP JUMPDEST CALLVALUE DUP1 ISZERO PUSH2 0x3EC JUMPI PUSH1 0x0 DUP1 REVERT JUMPDEST POP PUSH2 0x199 PUSH2 0x3FB CALLDATASIZE PUSH1 0x4 PUSH2 0x1373 JUMP JUMPDEST PUSH2 0x117A JUMP JUMPDEST CALLVALUE DUP1 ISZERO PUSH2 0x40C JUMPI PUSH1 0x0 DUP1 REVERT JUMPDEST POP PUSH2 0x2D1 PUSH2 0x41B CALLDATASIZE PUSH1 0x4 PUSH2 0x13AE JUMP JUMPDEST PUSH2 0x1226 JUMP JUMPDEST CALLVALUE DUP1 ISZERO PUSH2 0x42C JUMPI PUSH1 0x0 DUP1 REVERT JUMPDEST POP PUSH2 0x163 PUSH32 0x0 DUP2 JUMP JUMPDEST PUSH1 0x0 DUP2 ISZERO DUP1 PUSH2 0x464 JUMPI POP PUSH1 0x2 SLOAD DUP3 GT JUMPDEST ISZERO PUSH2 0x471 JUMPI POP PUSH1 0x0 SWAP2 SWAP1 POP JUMP JUMPDEST PUSH1 0x0 DUP3 PUSH1 0x2 SLOAD PUSH2 0x481 SWAP2 SWAP1 PUSH2 0x13F4 JUMP JUMPDEST SWAP1 POP PUSH1 0x0 PUSH5 0xE8D4A51000 PUSH2 0x495 DUP4 DUP1 PUSH2 0x140D JUMP JUMPDEST PUSH2 0x49F SWAP2 SWAP1 PUSH2 0x1424 JUMP JUMPDEST SWAP1 POP PUSH1 0x3 SLOAD DUP2 LT ISZERO PUSH2 0x4D4 JUMPI PUSH1 0x0 DUP2 PUSH1 0x3 SLOAD PUSH2 0x4BB SWAP2 SWAP1 PUSH2 0x13F4 JUMP JUMPDEST SWAP1 POP PUSH2 0x4C6 DUP2 PUSH2 0x4EF JUMP JUMPDEST PUSH2 0x4D0 SWAP1 DUP3 PUSH2 0x13F4 JUMP JUMPDEST SWAP4 POP POP JUMPDEST POP POP SWAP2 SWAP1 POP JUMP JUMPDEST PUSH2 0x4E3 PUSH2 0x1261 JUMP JUMPDEST PUSH2 0x4ED PUSH1 0x0 PUSH2 0x128E JUMP JUMPDEST JUMP JUMPDEST PUSH1 0x0 DUP1 PUSH2 0x2710 PUSH2 0x500 PUSH1 0x32 DUP6 PUSH2 0x140D JUMP JUMPDEST PUSH2 0x50A SWAP2 SWAP1 PUSH2 0x1424 JUMP JUMPDEST SWAP1 POP PUSH1 0x0 PUSH2 0x2710 PUSH2 0x51C PUSH1 0x1E DUP7 PUSH2 0x140D JUMP JUMPDEST PUSH2 0x526 SWAP2 SWAP1 PUSH2 0x1424 JUMP JUMPDEST SWAP1 POP PUSH2 0x532 DUP2 DUP4 PUSH2 0x1446 JUMP JUMPDEST SWAP5 SWAP4 POP POP POP POP JUMP JUMPDEST PUSH1 0x0 PUSH1 0x2 SLOAD PUSH1 0x0 SUB PUSH2 0x54C JUMPI POP PUSH1 0x0 SWAP1 JUMP JUMPDEST PUSH8 0xDE0B6B3A7640000 ADDRESS PUSH1 0x1 PUSH1 0x1 PUSH1 0xA0 SHL SUB AND PUSH4 0xEB91D37E PUSH1 0x40 MLOAD DUP2 PUSH4 0xFFFFFFFF AND PUSH1 0xE0 SHL DUP2 MSTORE PUSH1 0x4 ADD PUSH1 0x20 PUSH1 0x40 MLOAD DUP1 DUP4 SUB DUP2 DUP7 GAS STATICCALL ISZERO DUP1 ISZERO PUSH2 0x593 JUMPI RETURNDATASIZE PUSH1 0x0 DUP1 RETURNDATACOPY RETURNDATASIZE PUSH1 0x0 REVERT JUMPDEST POP POP POP POP PUSH1 0x40 MLOAD RETURNDATASIZE PUSH1 0x1F NOT PUSH1 0x1F DUP3 ADD AND DUP3 ADD DUP1 PUSH1 0x40 MSTORE POP DUP2 ADD SWAP1 PUSH2 0x5B7 SWAP2 SWAP1 PUSH2 0x1459 JUMP JUMPDEST PUSH1 0x2 SLOAD PUSH2 0x5C4 SWAP2 SWAP1 PUSH2 0x140D JUMP JUMPDEST PUSH2 0x5CE SWAP2 SWAP1 PUSH2 0x1424 JUMP JUMPDEST SWAP1 POP SWAP1 JUMP JUMPDEST PUSH2 0x5DB PUSH2 0x1261 JUMP JUMPDEST PUSH1 0x2 SLOAD ISZERO PUSH2 0x63A JUMPI PUSH1 0x40 MLOAD PUSH3 0x461BCD PUSH1 0xE5 SHL DUP2 MSTORE PUSH1 0x20 PUSH1 0x4 DUP3 ADD MSTORE PUSH1 0x21 PUSH1 0x24 DUP3 ADD MSTORE PUSH32 0x43616E206F6E6C792073656564207768656E20637572766520697320656D7074 PUSH1 0x44 DUP3 ADD MSTORE PUSH1 0x79 PUSH1 0xF8 SHL PUSH1 0x64 DUP3 ADD MSTORE PUSH1 0x84 ADD JUMPDEST PUSH1 0x40 MLOAD DUP1 SWAP2 SUB SWAP1 REVERT JUMPDEST PUSH1 0x0 DUP2 GT DUP1 ISZERO PUSH2 0x64A JUMPI POP PUSH1 0x0 CALLVALUE GT JUMPDEST PUSH2 0x6AA JUMPI PUSH1 0x40 MLOAD PUSH3 0x461BCD PUSH1 0xE5 SHL DUP2 MSTORE PUSH1 0x20 PUSH1 0x4 DUP3 ADD MSTORE PUSH1 0x2B PUSH1 0x24 DUP3 ADD MSTORE PUSH32 0x426F746820746F6B656E20616E642045544820616D6F756E7473206D75737420 PUSH1 0x44 DUP3 ADD MSTORE PUSH11 0x626520706F736974697665 PUSH1 0xA8 SHL PUSH1 0x64 DUP3 ADD MSTORE PUSH1 0x84 ADD PUSH2 0x631 JUMP JUMPDEST PUSH1 0x2 DUP2 SWAP1 SSTORE CALLVALUE PUSH1 0x3 SSTORE PUSH1 0x40 MLOAD PUSH4 0x23B872DD PUSH1 0xE0 SHL DUP2 MSTORE CALLER PUSH1 0x4 DUP3 ADD MSTORE ADDRESS PUSH1 0x24 DUP3 ADD MSTORE PUSH1 0x44 DUP2 ADD DUP3 SWAP1 MSTORE PUSH32 0x0 PUSH1 0x1 PUSH1 0x1 PUSH1 0xA0 SHL SUB AND SWAP1 PUSH4 0x23B872DD SWAP1 PUSH1 0x64 ADD PUSH1 0x20 PUSH1 0x40 MLOAD DUP1 DUP4 SUB DUP2 PUSH1 0x0 DUP8 GAS CALL ISZERO DUP1 ISZERO PUSH2 0x726 JUMPI RETURNDATASIZE PUSH1 0x0 DUP1 RETURNDATACOPY RETURNDATASIZE PUSH1 0x0 REVERT JUMPDEST POP POP POP POP PUSH1 0x40 MLOAD RETURNDATASIZE PUSH1 0x1F NOT PUSH1 0x1F DUP3 ADD AND DUP3 ADD DUP1 PUSH1 0x40 MSTORE POP DUP2 ADD SWAP1 PUSH2 0x74A SWAP2 SWAP1 PUSH2 0x1472 JUMP JUMPDEST PUSH2 0x766 JUMPI PUSH1 0x40 MLOAD PUSH3 0x461BCD PUSH1 0xE5 SHL DUP2 MSTORE PUSH1 0x4 ADD PUSH2 0x631 SWAP1 PUSH2 0x1494 JUMP JUMPDEST POP JUMP JUMPDEST PUSH2 0x771 PUSH2 0x12E0 JUMP JUMPDEST PUSH1 0x0 DUP3 GT PUSH2 0x7CD JUMPI PUSH1 0x40 MLOAD PUSH3 0x461BCD PUSH1 0xE5 SHL DUP2 MSTORE PUSH1 0x20 PUSH1 0x4 DUP3 ADD MSTORE PUSH1 0x23 PUSH1 0x24 DUP3 ADD MSTORE PUSH32 0x546F6B656E20616D6F756E74206D757374206265206772656174657220746861 PUSH1 0x44 DUP3 ADD MSTORE PUSH3 0x6E203 PUSH1 0xEC SHL PUSH1 0x64 DUP3 ADD MSTORE PUSH1 0x84 ADD PUSH2 0x631 JUMP JUMPDEST PUSH1 0x2 SLOAD DUP3 GT ISZERO PUSH2 0x82D JUMPI PUSH1 0x40 MLOAD PUSH3 0x461BCD PUSH1 0xE5 SHL DUP2 MSTORE PUSH1 0x20 PUSH1 0x4 DUP3 ADD MSTORE PUSH1 0x25 PUSH1 0x24 DUP3 ADD MSTORE PUSH32 0x43616E6E6F742073656C6C206D6F7265207468616E20737570706C7920696E20 PUSH1 0x44 DUP3 ADD MSTORE PUSH5 0x6375727665 PUSH1 0xD8 SHL PUSH1 0x64 DUP3 ADD MSTORE PUSH1 0x84 ADD PUSH2 0x631 JUMP JUMPDEST PUSH1 0x0 PUSH2 0x838 DUP4 PUSH2 0x454 JUMP JUMPDEST SWAP1 POP DUP2 DUP2 LT ISZERO PUSH2 0x89C JUMPI PUSH1 0x40 MLOAD PUSH3 0x461BCD PUSH1 0xE5 SHL DUP2 MSTORE PUSH1 0x20 PUSH1 0x4 DUP3 ADD MSTORE PUSH1 0x29 PUSH1 0x24 DUP3 ADD MSTORE PUSH32 0x536C6970706167652070726F74656374696F6E3A20696E73756666696369656E PUSH1 0x44 DUP3 ADD MSTORE PUSH9 0x1D08115512081BDD5D PUSH1 0xBA SHL PUSH1 0x64 DUP3 ADD MSTORE PUSH1 0x84 ADD PUSH2 0x631 JUMP JUMPDEST PUSH1 0x3 SLOAD DUP2 GT ISZERO PUSH2 0x8EE JUMPI PUSH1 0x40 MLOAD PUSH3 0x461BCD PUSH1 0xE5 SHL DUP2 MSTORE PUSH1 0x20 PUSH1 0x4 DUP3 ADD MSTORE PUSH1 0x18 PUSH1 0x24 DUP3 ADD MSTORE PUSH32 0x496E73756666696369656E742045544820726573657276650000000000000000 PUSH1 0x44 DUP3 ADD MSTORE PUSH1 0x64 ADD PUSH2 0x631 JUMP JUMPDEST PUSH1 0x0 PUSH5 0xE8D4A51000 DUP5 PUSH1 0x2 SLOAD PUSH2 0x904 SWAP2 SWAP1 PUSH2 0x13F4 JUMP JUMPDEST DUP6 PUSH1 0x2 SLOAD PUSH2 0x912 SWAP2 SWAP1 PUSH2 0x13F4 JUMP JUMPDEST PUSH2 0x91C SWAP2 SWAP1 PUSH2 0x140D JUMP JUMPDEST PUSH2 0x926 SWAP2 SWAP1 PUSH2 0x1424 JUMP JUMPDEST PUSH1 0x3 SLOAD PUSH2 0x933 SWAP2 SWAP1 PUSH2 0x13F4 JUMP JUMPDEST SWAP1 POP PUSH1 0x0 PUSH2 0x2710 PUSH2 0x945 PUSH1 0x32 DUP5 PUSH2 0x140D JUMP JUMPDEST PUSH2 0x94F SWAP2 SWAP1 PUSH2 0x1424 JUMP JUMPDEST SWAP1 POP PUSH1 0x0 PUSH2 0x2710 PUSH2 0x961 PUSH1 0x1E DUP6 PUSH2 0x140D JUMP JUMPDEST PUSH2 0x96B SWAP2 SWAP1 PUSH2 0x1424 JUMP JUMPDEST SWAP1 POP DUP6 PUSH1 0x2 PUSH1 0x0 DUP3 DUP3 SLOAD PUSH2 0x97F SWAP2 SWAP1 PUSH2 0x13F4 JUMP JUMPDEST SWAP3 POP POP DUP2 SWAP1 SSTORE POP DUP3 PUSH1 0x3 PUSH1 0x0 DUP3 DUP3 SLOAD PUSH2 0x998 SWAP2 SWAP1 PUSH2 0x13F4 JUMP JUMPDEST SWAP1 SWAP2 SSTORE POP POP PUSH1 0x40 MLOAD PUSH4 0x23B872DD PUSH1 0xE0 SHL DUP2 MSTORE CALLER PUSH1 0x4 DUP3 ADD MSTORE ADDRESS PUSH1 0x24 DUP3 ADD MSTORE PUSH1 0x44 DUP2 ADD DUP8 SWAP1 MSTORE PUSH32 0x0 PUSH1 0x1 PUSH1 0x1 PUSH1 0xA0 SHL SUB AND SWAP1 PUSH4 0x23B872DD SWAP1 PUSH1 0x64 ADD PUSH1 0x20 PUSH1 0x40 MLOAD DUP1 DUP4 SUB DUP2 PUSH1 0x0 DUP8 GAS CALL ISZERO DUP1 ISZERO PUSH2 0xA10 JUMPI RETURNDATASIZE PUSH1 0x0 DUP1 RETURNDATACOPY RETURNDATASIZE PUSH1 0x0 REVERT JUMPDEST POP POP POP POP PUSH1 0x40 MLOAD RETURNDATASIZE PUSH1 0x1F NOT PUSH1 0x1F DUP3 ADD AND DUP3 ADD DUP1 PUSH1 0x40 MSTORE POP DUP2 ADD SWAP1 PUSH2 0xA34 SWAP2 SWAP1 PUSH2 0x1472 JUMP JUMPDEST PUSH2 0xA50 JUMPI PUSH1 0x40 MLOAD PUSH3 0x461BCD PUSH1 0xE5 SHL DUP2 MSTORE PUSH1 0x4 ADD PUSH2 0x631 SWAP1 PUSH2 0x1494 JUMP JUMPDEST PUSH1 0x40 MLOAD PUSH1 0x0 SWAP1 CALLER SWAP1 DUP7 SWAP1 DUP4 DUP2 DUP2 DUP2 DUP6 DUP8 GAS CALL SWAP3 POP POP POP RETURNDATASIZE DUP1 PUSH1 0x0 DUP2 EQ PUSH2 0xA92 JUMPI PUSH1 0x40 MLOAD SWAP2 POP PUSH1 0x1F NOT PUSH1 0x3F RETURNDATASIZE ADD AND DUP3 ADD PUSH1 0x40 MSTORE RETURNDATASIZE DUP3 MSTORE RETURNDATASIZE PUSH1 0x0 PUSH1 0x20 DUP5 ADD RETURNDATACOPY PUSH2 0xA97 JUMP JUMPDEST PUSH1 0x60 SWAP2 POP JUMPDEST POP POP SWAP1 POP DUP1 PUSH2 0xAE8 JUMPI PUSH1 0x40 MLOAD PUSH3 0x461BCD PUSH1 0xE5 SHL DUP2 MSTORE PUSH1 0x20 PUSH1 0x4 DUP3 ADD MSTORE PUSH1 0x1D PUSH1 0x24 DUP3 ADD MSTORE PUSH32 0x455448207472616E7366657220746F2073656C6C6572206661696C6564000000 PUSH1 0x44 DUP3 ADD MSTORE PUSH1 0x64 ADD PUSH2 0x631 JUMP JUMPDEST DUP3 ISZERO PUSH2 0xBB3 JUMPI PUSH1 0x0 PUSH32 0x0 PUSH1 0x1 PUSH1 0x1 PUSH1 0xA0 SHL SUB AND DUP5 PUSH1 0x40 MLOAD PUSH1 0x0 PUSH1 0x40 MLOAD DUP1 DUP4 SUB DUP2 DUP6 DUP8 GAS CALL SWAP3 POP POP POP RETURNDATASIZE DUP1 PUSH1 0x0 DUP2 EQ PUSH2 0xB5B JUMPI PUSH1 0x40 MLOAD SWAP2 POP PUSH1 0x1F NOT PUSH1 0x3F RETURNDATASIZE ADD AND DUP3 ADD PUSH1 0x40 MSTORE RETURNDATASIZE DUP3 MSTORE RETURNDATASIZE PUSH1 0x0 PUSH1 0x20 DUP5 ADD RETURNDATACOPY PUSH2 0xB60 JUMP JUMPDEST PUSH1 0x60 SWAP2 POP JUMPDEST POP POP SWAP1 POP DUP1 PUSH2 0xBB1 JUMPI PUSH1 0x40 MLOAD PUSH3 0x461BCD PUSH1 0xE5 SHL DUP2 MSTORE PUSH1 0x20 PUSH1 0x4 DUP3 ADD MSTORE PUSH1 0x1B PUSH1 0x24 DUP3 ADD MSTORE PUSH32 0x43726561746F7220666565207472616E73666572206661696C65640000000000 PUSH1 0x44 DUP3 ADD MSTORE PUSH1 0x64 ADD PUSH2 0x631 JUMP JUMPDEST POP JUMPDEST DUP2 ISZERO PUSH2 0xC7E JUMPI PUSH1 0x0 PUSH32 0x0 PUSH1 0x1 PUSH1 0x1 PUSH1 0xA0 SHL SUB AND DUP4 PUSH1 0x40 MLOAD PUSH1 0x0 PUSH1 0x40 MLOAD DUP1 DUP4 SUB DUP2 DUP6 DUP8 GAS CALL SWAP3 POP POP POP RETURNDATASIZE DUP1 PUSH1 0x0 DUP2 EQ PUSH2 0xC26 JUMPI PUSH1 0x40 MLOAD SWAP2 POP PUSH1 0x1F NOT PUSH1 0x3F RETURNDATASIZE ADD AND DUP3 ADD PUSH1 0x40 MSTORE RETURNDATASIZE DUP3 MSTORE RETURNDATASIZE PUSH1 0x0 PUSH1 0x20 DUP5 ADD RETURNDATACOPY PUSH2 0xC2B JUMP JUMPDEST PUSH1 0x60 SWAP2 POP JUMPDEST POP POP SWAP1 POP DUP1 PUSH2 0xC7C JUMPI PUSH1 0x40 MLOAD PUSH3 0x461BCD PUSH1 0xE5 SHL DUP2 MSTORE PUSH1 0x20 PUSH1 0x4 DUP3 ADD MSTORE PUSH1 0x1C PUSH1 0x24 DUP3 ADD MSTORE PUSH32 0x506C6174666F726D20666565207472616E73666572206661696C656400000000 PUSH1 0x44 DUP3 ADD MSTORE PUSH1 0x64 ADD PUSH2 0x631 JUMP JUMPDEST POP JUMPDEST PUSH1 0x40 DUP1 MLOAD DUP9 DUP2 MSTORE PUSH1 0x20 DUP2 ADD DUP8 SWAP1 MSTORE SWAP1 DUP2 ADD DUP5 SWAP1 MSTORE PUSH1 0x60 DUP2 ADD DUP4 SWAP1 MSTORE CALLER SWAP1 PUSH32 0x6B17016C67D28F4CC3A653D895E3B1DB09320D6852A46F95AA225059190F7DCD SWAP1 PUSH1 0x80 ADD PUSH1 0x40 MLOAD DUP1 SWAP2 SUB SWAP1 LOG2 POP POP POP POP POP PUSH2 0xCD7 PUSH1 0x1 PUSH1 0x0 SSTORE JUMP JUMPDEST POP POP JUMP JUMPDEST PUSH2 0xCE3 PUSH2 0x12E0 JUMP JUMPDEST PUSH1 0x0 CALLVALUE GT PUSH2 0xD3D JUMPI PUSH1 0x40 MLOAD PUSH3 0x461BCD PUSH1 0xE5 SHL DUP2 MSTORE PUSH1 0x20 PUSH1 0x4 DUP3 ADD MSTORE PUSH1 0x21 PUSH1 0x24 DUP3 ADD MSTORE PUSH32 0x45544820616D6F756E74206D7573742062652067726561746572207468616E20 PUSH1 0x44 DUP3 ADD MSTORE PUSH1 0x3 PUSH1 0xFC SHL PUSH1 0x64 DUP3 ADD MSTORE PUSH1 0x84 ADD PUSH2 0x631 JUMP JUMPDEST PUSH1 0x0 PUSH2 0xD48 CALLVALUE PUSH2 0x117A JUMP JUMPDEST SWAP1 POP DUP2 DUP2 LT ISZERO PUSH2 0xDAF JUMPI PUSH1 0x40 MLOAD PUSH3 0x461BCD PUSH1 0xE5 SHL DUP2 MSTORE PUSH1 0x20 PUSH1 0x4 DUP3 ADD MSTORE PUSH1 0x2C PUSH1 0x24 DUP3 ADD MSTORE PUSH32 0x536C6970706167652070726F74656374696F6E3A20696E73756666696369656E PUSH1 0x44 DUP3 ADD MSTORE PUSH12 0x1D081D1BDAD95B9CC81BDD5D PUSH1 0xA2 SHL PUSH1 0x64 DUP3 ADD MSTORE PUSH1 0x84 ADD PUSH2 0x631 JUMP JUMPDEST PUSH12 0x33B2E3C9FD0803CE8000000 DUP2 PUSH1 0x2 SLOAD PUSH2 0xDCA SWAP2 SWAP1 PUSH2 0x1446 JUMP JUMPDEST GT ISZERO PUSH2 0xE0D JUMPI PUSH1 0x40 MLOAD PUSH3 0x461BCD PUSH1 0xE5 SHL DUP2 MSTORE PUSH1 0x20 PUSH1 0x4 DUP3 ADD MSTORE PUSH1 0x12 PUSH1 0x24 DUP3 ADD MSTORE PUSH18 0x45786365656473206D617820737570706C79 PUSH1 0x70 SHL PUSH1 0x44 DUP3 ADD MSTORE PUSH1 0x64 ADD PUSH2 0x631 JUMP JUMPDEST PUSH1 0x0 PUSH2 0x2710 PUSH2 0xE1D PUSH1 0x32 CALLVALUE PUSH2 0x140D JUMP JUMPDEST PUSH2 0xE27 SWAP2 SWAP1 PUSH2 0x1424 JUMP JUMPDEST SWAP1 POP PUSH1 0x0 PUSH2 0x2710 PUSH2 0xE39 PUSH1 0x1E CALLVALUE PUSH2 0x140D JUMP JUMPDEST PUSH2 0xE43 SWAP2 SWAP1 PUSH2 0x1424 JUMP JUMPDEST SWAP1 POP PUSH1 0x0 DUP2 PUSH2 0xE52 DUP5 CALLVALUE PUSH2 0x13F4 JUMP JUMPDEST PUSH2 0xE5C SWAP2 SWAP1 PUSH2 0x13F4 JUMP JUMPDEST SWAP1 POP DUP4 PUSH1 0x2 PUSH1 0x0 DUP3 DUP3 SLOAD PUSH2 0xE70 SWAP2 SWAP1 PUSH2 0x1446 JUMP JUMPDEST SWAP3 POP POP DUP2 SWAP1 SSTORE POP DUP1 PUSH1 0x3 PUSH1 0x0 DUP3 DUP3 SLOAD PUSH2 0xE89 SWAP2 SWAP1 PUSH2 0x1446 JUMP JUMPDEST SWAP1 SWAP2 SSTORE POP POP PUSH1 0x40 MLOAD PUSH4 0xA9059CBB PUSH1 0xE0 SHL DUP2 MSTORE CALLER PUSH1 0x4 DUP3 ADD MSTORE PUSH1 0x24 DUP2 ADD DUP6 SWAP1 MSTORE PUSH32 0x0 PUSH1 0x1 PUSH1 0x1 PUSH1 0xA0 SHL SUB AND SWAP1 PUSH4 0xA9059CBB SWAP1 PUSH1 0x44 ADD PUSH1 0x20 PUSH1 0x40 MLOAD DUP1 DUP4 SUB DUP2 PUSH1 0x0 DUP8 GAS CALL ISZERO DUP1 ISZERO PUSH2 0xEFB JUMPI RETURNDATASIZE PUSH1 0x0 DUP1 RETURNDATACOPY RETURNDATASIZE PUSH1 0x0 REVERT JUMPDEST POP POP POP POP PUSH1 0x40 MLOAD RETURNDATASIZE PUSH1 0x1F NOT PUSH1 0x1F DUP3 ADD AND DUP3 ADD DUP1 PUSH1 0x40 MSTORE POP DUP2 ADD SWAP1 PUSH2 0xF1F SWAP2 SWAP1 PUSH2 0x1472 JUMP JUMPDEST PUSH2 0xF3B JUMPI PUSH1 0x40 MLOAD PUSH3 0x461BCD PUSH1 0xE5 SHL DUP2 MSTORE PUSH1 0x4 ADD PUSH2 0x631 SWAP1 PUSH2 0x1494 JUMP JUMPDEST DUP3 ISZERO PUSH2 0x1006 JUMPI PUSH1 0x0 PUSH32 0x0 PUSH1 0x1 PUSH1 0x1 PUSH1 0xA0 SHL SUB AND DUP5 PUSH1 0x40 MLOAD PUSH1 0x0 PUSH1 0x40 MLOAD DUP1 DUP4 SUB DUP2 DUP6 DUP8 GAS CALL SWAP3 POP POP POP RETURNDATASIZE DUP1 PUSH1 0x0 DUP2 EQ PUSH2 0xFAE JUMPI PUSH1 0x40 MLOAD SWAP2 POP PUSH1 0x1F NOT PUSH1 0x3F RETURNDATASIZE ADD AND DUP3 ADD PUSH1 0x40 MSTORE RETURNDATASIZE DUP3 MSTORE RETURNDATASIZE PUSH1 0x0 PUSH1 0x20 DUP5 ADD RETURNDATACOPY PUSH2 0xFB3 JUMP JUMPDEST PUSH1 0x60 SWAP2 POP JUMPDEST POP POP SWAP1 POP DUP1 PUSH2 0x1004 JUMPI PUSH1 0x40 MLOAD PUSH3 0x461BCD PUSH1 0xE5 SHL DUP2 MSTORE PUSH1 0x20 PUSH1 0x4 DUP3 ADD MSTORE PUSH1 0x1B PUSH1 0x24 DUP3 ADD MSTORE PUSH32 0x43726561746F7220666565207472616E73666572206661696C65640000000000 PUSH1 0x44 DUP3 ADD MSTORE PUSH1 0x64 ADD PUSH2 0x631 JUMP JUMPDEST POP JUMPDEST DUP2 ISZERO PUSH2 0x10D1 JUMPI PUSH1 0x0 PUSH32 0x0 PUSH1 0x1 PUSH1 0x1 PUSH1 0xA0 SHL SUB AND DUP4 PUSH1 0x40 MLOAD PUSH1 0x0 PUSH1 0x40 MLOAD DUP1 DUP4 SUB DUP2 DUP6 DUP8 GAS CALL SWAP3 POP POP POP RETURNDATASIZE DUP1 PUSH1 0x0 DUP2 EQ PUSH2 0x1079 JUMPI PUSH1 0x40 MLOAD SWAP2 POP PUSH1 0x1F NOT PUSH1 0x3F RETURNDATASIZE ADD AND DUP3 ADD PUSH1 0x40 MSTORE RETURNDATASIZE DUP3 MSTORE RETURNDATASIZE PUSH1 0x0 PUSH1 0x20 DUP5 ADD RETURNDATACOPY PUSH2 0x107E JUMP JUMPDEST PUSH1 0x60 SWAP2 POP JUMPDEST POP POP SWAP1 POP DUP1 PUSH2 0x10CF JUMPI PUSH1 0x40 MLOAD PUSH3 0x461BCD PUSH1 0xE5 SHL DUP2 MSTORE PUSH1 0x20 PUSH1 0x4 DUP3 ADD MSTORE PUSH1 0x1C PUSH1 0x24 DUP3 ADD MSTORE PUSH32 0x506C6174666F726D20666565207472616E73666572206661696C656400000000 PUSH1 0x44 DUP3 ADD MSTORE PUSH1 0x64 ADD PUSH2 0x631 JUMP JUMPDEST POP JUMPDEST PUSH1 0x40 DUP1 MLOAD CALLVALUE DUP2 MSTORE PUSH1 0x20 DUP2 ADD DUP7 SWAP1 MSTORE SWAP1 DUP2 ADD DUP5 SWAP1 MSTORE PUSH1 0x60 DUP2 ADD DUP4 SWAP1 MSTORE CALLER SWAP1 PUSH32 0xCA1D1D2C3F24BB3F0C4AD90BD9823D2465052996D73438C962E227EA67A206D8 SWAP1 PUSH1 0x80 ADD PUSH1 0x40 MLOAD DUP1 SWAP2 SUB SWAP1 LOG2 POP POP POP POP PUSH2 0x766 PUSH1 0x1 PUSH1 0x0 SSTORE JUMP JUMPDEST PUSH1 0x0 PUSH1 0x2 SLOAD PUSH1 0x0 SUB PUSH2 0x1157 JUMPI PUSH8 0xDE0B6B3A7640000 PUSH2 0x114C PUSH5 0xE8D4A51000 PUSH2 0x130A JUMP JUMPDEST PUSH2 0x5C4 SWAP1 PUSH1 0x2 PUSH2 0x140D JUMP JUMPDEST PUSH2 0x116F PUSH1 0x2 SLOAD PUSH1 0x3 SLOAD PUSH2 0x116A SWAP2 SWAP1 PUSH2 0x1424 JUMP JUMPDEST PUSH2 0x130A JUMP JUMPDEST PUSH2 0x5CE SWAP1 PUSH1 0x2 PUSH2 0x140D JUMP JUMPDEST PUSH1 0x0 DUP2 PUSH1 0x0 SUB PUSH2 0x118C JUMPI POP PUSH1 0x0 SWAP2 SWAP1 POP JUMP JUMPDEST PUSH1 0x0 PUSH2 0x1197 DUP4 PUSH2 0x4EF JUMP JUMPDEST PUSH2 0x11A1 SWAP1 DUP5 PUSH2 0x13F4 JUMP JUMPDEST SWAP1 POP PUSH1 0x0 DUP2 PUSH1 0x3 SLOAD PUSH2 0x11B3 SWAP2 SWAP1 PUSH2 0x1446 JUMP JUMPDEST SWAP1 POP PUSH1 0x0 PUSH2 0x11C9 PUSH2 0x116A PUSH5 0xE8D4A51000 DUP5 PUSH2 0x140D JUMP JUMPDEST SWAP1 POP PUSH1 0x2 SLOAD DUP2 GT ISZERO PUSH2 0x121E JUMPI PUSH1 0x2 SLOAD PUSH2 0x11E2 SWAP1 DUP3 PUSH2 0x13F4 JUMP JUMPDEST SWAP4 POP PUSH12 0x33B2E3C9FD0803CE8000000 DUP5 PUSH1 0x2 SLOAD PUSH2 0x11FF SWAP2 SWAP1 PUSH2 0x1446 JUMP JUMPDEST GT ISZERO PUSH2 0x121E JUMPI PUSH1 0x2 SLOAD PUSH2 0x4D0 SWAP1 PUSH12 0x33B2E3C9FD0803CE8000000 PUSH2 0x13F4 JUMP JUMPDEST POP POP POP SWAP2 SWAP1 POP JUMP JUMPDEST PUSH2 0x122E PUSH2 0x1261 JUMP JUMPDEST PUSH1 0x1 PUSH1 0x1 PUSH1 0xA0 SHL SUB DUP2 AND PUSH2 0x1258 JUMPI PUSH1 0x40 MLOAD PUSH4 0x1E4FBDF7 PUSH1 0xE0 SHL DUP2 MSTORE PUSH1 0x0 PUSH1 0x4 DUP3 ADD MSTORE PUSH1 0x24 ADD PUSH2 0x631 JUMP JUMPDEST PUSH2 0x766 DUP2 PUSH2 0x128E JUMP JUMPDEST PUSH1 0x1 SLOAD PUSH1 0x1 PUSH1 0x1 PUSH1 0xA0 SHL SUB AND CALLER EQ PUSH2 0x4ED JUMPI PUSH1 0x40 MLOAD PUSH4 0x118CDAA7 PUSH1 0xE0 SHL DUP2 MSTORE CALLER PUSH1 0x4 DUP3 ADD MSTORE PUSH1 0x24 ADD PUSH2 0x631 JUMP JUMPDEST PUSH1 0x1 DUP1 SLOAD PUSH1 0x1 PUSH1 0x1 PUSH1 0xA0 SHL SUB DUP4 DUP2 AND PUSH1 0x1 PUSH1 0x1 PUSH1 0xA0 SHL SUB NOT DUP4 AND DUP2 OR SWAP1 SWAP4 SSTORE PUSH1 0x40 MLOAD SWAP2 AND SWAP2 SWAP1 DUP3 SWAP1 PUSH32 0x8BE0079C531659141344CD1FD0A4F28419497F9722A3DAAFE3B4186F6B6457E0 SWAP1 PUSH1 0x0 SWAP1 LOG3 POP POP JUMP JUMPDEST PUSH1 0x2 PUSH1 0x0 SLOAD SUB PUSH2 0x1303 JUMPI PUSH1 0x40 MLOAD PUSH4 0x3EE5AEB5 PUSH1 0xE0 SHL DUP2 MSTORE PUSH1 0x4 ADD PUSH1 0x40 MLOAD DUP1 SWAP2 SUB SWAP1 REVERT JUMPDEST PUSH1 0x2 PUSH1 0x0 SSTORE JUMP JUMPDEST PUSH1 0x0 DUP2 PUSH1 0x0 SUB PUSH2 0x131C JUMPI POP PUSH1 0x0 SWAP2 SWAP1 POP JUMP JUMPDEST POP DUP1 PUSH1 0x0 PUSH1 0x2 PUSH2 0x132D DUP4 PUSH1 0x1 PUSH2 0x1446 JUMP JUMPDEST PUSH2 0x1337 SWAP2 SWAP1 PUSH2 0x1424 JUMP JUMPDEST SWAP1 POP JUMPDEST DUP2 DUP2 LT ISZERO PUSH2 0x136D JUMPI SWAP1 POP DUP1 PUSH1 0x2 DUP2 PUSH2 0x1352 DUP2 DUP7 PUSH2 0x1424 JUMP JUMPDEST PUSH2 0x135C SWAP2 SWAP1 PUSH2 0x1446 JUMP JUMPDEST PUSH2 0x1366 SWAP2 SWAP1 PUSH2 0x1424 JUMP JUMPDEST SWAP1 POP PUSH2 0x133A JUMP JUMPDEST POP SWAP2 SWAP1 POP JUMP JUMPDEST PUSH1 0x0 PUSH1 0x20 DUP3 DUP5 SUB SLT ISZERO PUSH2 0x1385 JUMPI PUSH1 0x0 DUP1 REVERT JUMPDEST POP CALLDATALOAD SWAP2 SWAP1 POP JUMP JUMPDEST PUSH1 0x0 DUP1 PUSH1 0x40 DUP4 DUP6 SUB SLT ISZERO PUSH2 0x139F JUMPI PUSH1 0x0 DUP1 REVERT JUMPDEST POP POP DUP1 CALLDATALOAD SWAP3 PUSH1 0x20 SWAP1 SWAP2 ADD CALLDATALOAD SWAP2 POP JUMP JUMPDEST PUSH1 0x0 PUSH1 0x20 DUP3 DUP5 SUB SLT ISZERO PUSH2 0x13C0 JUMPI PUSH1 0x0 DUP1 REVERT JUMPDEST DUP2 CALLDATALOAD PUSH1 0x1 PUSH1 0x1 PUSH1 0xA0 SHL SUB DUP2 AND DUP2 EQ PUSH2 0x13D7 JUMPI PUSH1 0x0 DUP1 REVERT JUMPDEST SWAP4 SWAP3 POP POP POP JUMP JUMPDEST PUSH4 0x4E487B71 PUSH1 0xE0 SHL PUSH1 0x0 MSTORE PUSH1 0x11 PUSH1 0x4 MSTORE PUSH1 0x24 PUSH1 0x0 REVERT JUMPDEST DUP2 DUP2 SUB DUP2 DUP2 GT ISZERO PUSH2 0x1407 JUMPI PUSH2 0x1407 PUSH2 0x13DE JUMP JUMPDEST SWAP3 SWAP2 POP POP JUMP JUMPDEST DUP1 DUP3 MUL DUP2 ISZERO DUP3 DUP3 DIV DUP5 EQ OR PUSH2 0x1407 JUMPI PUSH2 0x1407 PUSH2 0x13DE JUMP JUMPDEST PUSH1 0x0 DUP3 PUSH2 0x1441 JUMPI PUSH4 0x4E487B71 PUSH1 0xE0 SHL PUSH1 0x0 MSTORE PUSH1 0x12 PUSH1 0x4 MSTORE PUSH1 0x24 PUSH1 0x0 REVERT JUMPDEST POP DIV SWAP1 JUMP JUMPDEST DUP1 DUP3 ADD DUP1 DUP3 GT ISZERO PUSH2 0x1407 JUMPI PUSH2 0x1407 PUSH2 0x13DE JUMP JUMPDEST PUSH1 0x0 PUSH1 0x20 DUP3 DUP5 SUB SLT ISZERO PUSH2 0x146B JUMPI PUSH1 0x0 DUP1 REVERT JUMPDEST POP MLOAD SWAP2 SWAP1 POP JUMP JUMPDEST PUSH1 0x0 PUSH1 0x20 DUP3 DUP5 SUB SLT ISZERO PUSH2 0x1484 JUMPI PUSH1 0x0 DUP1 REVERT JUMPDEST DUP2 MLOAD DUP1 ISZERO ISZERO DUP2 EQ PUSH2 0x13D7 JUMPI PUSH1 0x0 DUP1 REVERT JUMPDEST PUSH1 0x20 DUP1 DUP3 MSTORE PUSH1 0x15 SWAP1 DUP3 ADD MSTORE PUSH21 0x151BDAD95B881D1C985B9CD9995C8819985A5B1959 PUSH1 0x5A SHL PUSH1 0x40 DUP3 ADD MSTORE PUSH1 0x60 ADD SWAP1 JUMP INVALID LOG2 PUSH5 0x6970667358 0x22 SLT KECCAK256 0xBE SIGNEXTEND CALLER SIGNEXTEND PUSH25 0xD59BDA22310DF7D82DA1B24030E4FAF5DEAED22D28D948AD15 SSTORE DUP4 PUSH5 0x736F6C6343 STOP ADDMOD EQ STOP CALLER "},"methodIdentifiers":{"CREATOR_FEE_BPS()":"cc3cbd2a","CURVE_COEFFICIENT()":"258047b4","MAX_SUPPLY()":"32cb6b0c","PLATFORM_FEE_BPS()":"539aa77f","buy(uint256)":"d96a094a","calculateBuyTokens(uint256)":"f1af6faf","calculateSellTokens(uint256)":"5335fda9","calculateTotalFees(uint256)":"7400243c","creator()":"02d05d3f","ethReserve()":"d62ccb3f","getCurrentPrice()":"eb91d37e","getInfo()":"5a9b0b89","getMarketCap()":"90825c28","owner()":"8da5cb5b","platformAdmin()":"cdcd7fb5","renounceOwnership()":"715018a6","seedLiquidity(uint256)":"c57fed13","sell(uint256,uint256)":"d79875eb","token()":"fc0c546a","totalSupplyInCurve()":"29456ded","transferOwnership(address)":"f2fde38b"}}}}}