{
  "_format": "hh-sol-artifact-1",
  "contractName": "BondingCurveExchange",
  "sourceName": "contracts/BondingCurveExchange.sol",
  "abi": [
    {
      "inputs": [
        {
          "internalType": "address",
          "name": "_token",
          "type": "address"
        },
        {
          "internalType": "address",
          "name": "_creator",
          "type": "address"
        },
        {
          "internalType": "address",
          "name": "_platformAdmin",
          "type": "address"
        }
      ],
      "stateMutability": "nonpayable",
      "type": "constructor"
    },
    {
      "inputs": [
        {
          "internalType": "address",
          "name": "owner",
          "type": "address"
        }
      ],
      "name": "OwnableInvalidOwner",
      "type": "error"
    },
    {
      "inputs": [
        {
          "internalType": "address",
          "name": "account",
          "type": "address"
        }
      ],
      "name": "OwnableUnauthorizedAccount",
      "type": "error"
    },
    {
      "inputs": [],
      "name": "ReentrancyGuardReentrantCall",
      "type": "error"
    },
    {
      "anonymous": false,
      "inputs": [
        {
          "indexed": true,
          "internalType": "address",
          "name": "previousOwner",
          "type": "address"
        },
        {
          "indexed": true,
          "internalType": "address",
          "name": "newOwner",
          "type": "address"
        }
      ],
      "name": "OwnershipTransferred",
      "type": "event"
    },
    {
      "anonymous": false,
      "inputs": [
        {
          "indexed": true,
          "internalType": "address",
          "name": "buyer",
          "type": "address"
        },
        {
          "indexed": false,
          "internalType": "uint256",
          "name": "ethSpent",
          "type": "uint256"
        },
        {
          "indexed": false,
          "internalType": "uint256",
          "name": "tokensReceived",
          "type": "uint256"
        },
        {
          "indexed": false,
          "internalType": "uint256",
          "name": "creatorFee",
          "type": "uint256"
        },
        {
          "indexed": false,
          "internalType": "uint256",
          "name": "platformFee",
          "type": "uint256"
        }
      ],
      "name": "TokensBought",
      "type": "event"
    },
    {
      "anonymous": false,
      "inputs": [
        {
          "indexed": true,
          "internalType": "address",
          "name": "seller",
          "type": "address"
        },
        {
          "indexed": false,
          "internalType": "uint256",
          "name": "tokensSold",
          "type": "uint256"
        },
        {
          "indexed": false,
          "internalType": "uint256",
          "name": "ethReceived",
          "type": "uint256"
        },
        {
          "indexed": false,
          "internalType": "uint256",
          "name": "creatorFee",
          "type": "uint256"
        },
        {
          "indexed": false,
          "internalType": "uint256",
          "name": "platformFee",
          "type": "uint256"
        }
      ],
      "name": "TokensSold",
      "type": "event"
    },
    {
      "inputs": [],
      "name": "CREATOR_FEE_BPS",
      "outputs": [
        {
          "internalType": "uint256",
          "name": "",
          "type": "uint256"
        }
      ],
      "stateMutability": "view",
      "type": "function"
    },
    {
      "inputs": [],
      "name": "CURVE_COEFFICIENT",
      "outputs": [
        {
          "internalType": "uint256",
          "name": "",
          "type": "uint256"
        }
      ],
      "stateMutability": "view",
      "type": "function"
    },
    {
      "inputs": [],
      "name": "MAX_SUPPLY",
      "outputs": [
        {
          "internalType": "uint256",
          "name": "",
          "type": "uint256"
        }
      ],
      "stateMutability": "view",
      "type": "function"
    },
    {
      "inputs": [],
      "name": "PLATFORM_FEE_BPS",
      "outputs": [
        {
          "internalType": "uint256",
          "name": "",
          "type": "uint256"
        }
      ],
      "stateMutability": "view",
      "type": "function"
    },
    {
      "inputs": [
        {
          "internalType": "uint256",
          "name": "minTokensOut",
          "type": "uint256"
        }
      ],
      "name": "buy",
      "outputs": [],
      "stateMutability": "payable",
      "type": "function"
    },
    {
      "inputs": [
        {
          "internalType": "uint256",
          "name": "ethAmount",
          "type": "uint256"
        }
      ],
      "name": "calculateBuyTokens",
      "outputs": [
        {
          "internalType": "uint256",
          "name": "tokensOut",
          "type": "uint256"
        }
      ],
      "stateMutability": "view",
      "type": "function"
    },
    {
      "inputs": [
        {
          "internalType": "uint256",
          "name": "tokenAmount",
          "type": "uint256"
        }
      ],
      "name": "calculateSellTokens",
      "outputs": [
        {
          "internalType": "uint256",
          "name": "ethOut",
          "type": "uint256"
        }
      ],
      "stateMutability": "view",
      "type": "function"
    },
    {
      "inputs": [
        {
          "internalType": "uint256",
          "name": "amount",
          "type": "uint256"
        }
      ],
      "name": "calculateTotalFees",
      "outputs": [
        {
          "internalType": "uint256",
          "name": "totalFees",
          "type": "uint256"
        }
      ],
      "stateMutability": "pure",
      "type": "function"
    },
    {
      "inputs": [],
      "name": "creator",
      "outputs": [
        {
          "internalType": "address",
          "name": "",
          "type": "address"
        }
      ],
      "stateMutability": "view",
      "type": "function"
    },
    {
      "inputs": [],
      "name": "ethReserve",
      "outputs": [
        {
          "internalType": "uint256",
          "name": "",
          "type": "uint256"
        }
      ],
      "stateMutability": "view",
      "type": "function"
    },
    {
      "inputs": [],
      "name": "getCurrentPrice",
      "outputs": [
        {
          "internalType": "uint256",
          "name": "price",
          "type": "uint256"
        }
      ],
      "stateMutability": "view",
      "type": "function"
    },
    {
      "inputs": [],
      "name": "getInfo",
      "outputs": [
        {
          "internalType": "address",
          "name": "tokenAddress",
          "type": "address"
        },
        {
          "internalType": "address",
          "name": "creatorAddress",
          "type": "address"
        },
        {
          "internalType": "address",
          "name": "platformAddress",
          "type": "address"
        },
        {
          "internalType": "uint256",
          "name": "supply",
          "type": "uint256"
        },
        {
          "internalType": "uint256",
          "name": "reserve",
          "type": "uint256"
        }
      ],
      "stateMutability": "view",
      "type": "function"
    },
    {
      "inputs": [],
      "name": "getMarketCap",
      "outputs": [
        {
          "internalType": "uint256",
          "name": "marketCap",
          "type": "uint256"
        }
      ],
      "stateMutability": "view",
      "type": "function"
    },
    {
      "inputs": [],
      "name": "owner",
      "outputs": [
        {
          "internalType": "address",
          "name": "",
          "type": "address"
        }
      ],
      "stateMutability": "view",
      "type": "function"
    },
    {
      "inputs": [],
      "name": "platformAdmin",
      "outputs": [
        {
          "internalType": "address",
          "name": "",
          "type": "address"
        }
      ],
      "stateMutability": "view",
      "type": "function"
    },
    {
      "inputs": [],
      "name": "renounceOwnership",
      "outputs": [],
      "stateMutability": "nonpayable",
      "type": "function"
    },
    {
      "inputs": [
        {
          "internalType": "uint256",
          "name": "tokenAmount",
          "type": "uint256"
        }
      ],
      "name": "seedLiquidity",
      "outputs": [],
      "stateMutability": "payable",
      "type": "function"
    },
    {
      "inputs": [
        {
          "internalType": "uint256",
          "name": "tokenAmount",
          "type": "uint256"
        },
        {
          "internalType": "uint256",
          "name": "minEthOut",
          "type": "uint256"
        }
      ],
      "name": "sell",
      "outputs": [],
      "stateMutability": "nonpayable",
      "type": "function"
    },
    {
      "inputs": [],
      "name": "token",
      "outputs": [
        {
          "internalType": "contract IERC20",
          "name": "",
          "type": "address"
        }
      ],
      "stateMutability": "view",
      "type": "function"
    },
    {
      "inputs": [],
      "name": "totalSupplyInCurve",
      "outputs": [
        {
          "internalType": "uint256",
          "name": "",
          "type": "uint256"
        }
      ],
      "stateMutability": "view",
      "type": "function"
    },
    {
      "inputs": [
        {
          "internalType": "address",
          "name": "newOwner",
          "type": "address"
        }
      ],
      "name": "transferOwnership",
      "outputs": [],
      "stateMutability": "nonpayable",
      "type": "function"
    }
  ],
  "bytecode": "0x60e06040523480156200001157600080fd5b50604051620017ca380380620017ca833981016040819052620000349162000211565b600160005533806200006157604051631e4fbdf760e01b8152600060048201526024015b60405180910390fd5b6200006c81620001a2565b506001600160a01b038316620000c55760405162461bcd60e51b815260206004820152601560248201527f496e76616c696420746f6b656e20616464726573730000000000000000000000604482015260640162000058565b6001600160a01b0382166200011d5760405162461bcd60e51b815260206004820152601760248201527f496e76616c69642063726561746f722061646472657373000000000000000000604482015260640162000058565b6001600160a01b038116620001755760405162461bcd60e51b815260206004820152601e60248201527f496e76616c696420706c6174666f726d2061646d696e20616464726573730000604482015260640162000058565b6001600160a01b0380841660805282811660a052811660c0526200019981620001a2565b5050506200025b565b600180546001600160a01b038381166001600160a01b0319831681179093556040519116919082907f8be0079c531659141344cd1fd0a4f28419497f9722a3daafe3b4186f6b6457e090600090a35050565b80516001600160a01b03811681146200020c57600080fd5b919050565b6000806000606084860312156200022757600080fd5b6200023284620001f4565b92506200024260208501620001f4565b91506200025260408501620001f4565b90509250925092565b60805160a05160c0516114f9620002d1600039600081816102800152818161036001528181610bbd01526110100152600081816101410152818161025801528181610af20152610f4501526000818161023301528181610432015281816106d5015281816109bf0152610eaa01526114f96000f3fe60806040526004361061012a5760003560e01c806390825c28116100ab578063d79875eb1161006f578063d79875eb14610398578063d96a094a146103b8578063eb91d37e146103cb578063f1af6faf146103e0578063f2fde38b14610400578063fc0c546a1461042057600080fd5b806390825c2814610311578063c57fed1314610326578063cc3cbd2a14610339578063cdcd7fb51461034e578063d62ccb3f1461038257600080fd5b8063539aa77f116100f2578063539aa77f146101fd5780635a9b0b8914610212578063715018a6146102bc5780637400243c146102d35780638da5cb5b146102f357600080fd5b806302d05d3f1461012f578063258047b41461018057806329456ded146101a757806332cb6b0c146101bd5780635335fda9146101dd575b600080fd5b34801561013b57600080fd5b506101637f000000000000000000000000000000000000000000000000000000000000000081565b6040516001600160a01b0390911681526020015b60405180910390f35b34801561018c57600080fd5b5061019964e8d4a5100081565b604051908152602001610177565b3480156101b357600080fd5b5061019960025481565b3480156101c957600080fd5b506101996b033b2e3c9fd0803ce800000081565b3480156101e957600080fd5b506101996101f8366004611373565b610454565b34801561020957600080fd5b50610199601e81565b34801561021e57600080fd5b50600254600354604080516001600160a01b037f0000000000000000000000000000000000000000000000000000000000000000811682527f0000000000000000000000000000000000000000000000000000000000000000811660208301527f000000000000000000000000000000000000000000000000000000000000000016918101919091526060810192909252608082015260a001610177565b3480156102c857600080fd5b506102d16104db565b005b3480156102df57600080fd5b506101996102ee366004611373565b6104ef565b3480156102ff57600080fd5b506001546001600160a01b0316610163565b34801561031d57600080fd5b5061019961053a565b6102d1610334366004611373565b6105d3565b34801561034557600080fd5b50610199603281565b34801561035a57600080fd5b506101637f000000000000000000000000000000000000000000000000000000000000000081565b34801561038e57600080fd5b5061019960035481565b3480156103a457600080fd5b506102d16103b336600461138c565b610769565b6102d16103c6366004611373565b610cdb565b3480156103d757600080fd5b50610199611129565b3480156103ec57600080fd5b506101996103fb366004611373565b61117a565b34801561040c57600080fd5b506102d161041b3660046113ae565b611226565b34801561042c57600080fd5b506101637f000000000000000000000000000000000000000000000000000000000000000081565b6000811580610464575060025482115b1561047157506000919050565b60008260025461048191906113f4565b9050600064e8d4a51000610495838061140d565b61049f9190611424565b90506003548110156104d4576000816003546104bb91906113f4565b90506104c6816104ef565b6104d090826113f4565b9350505b5050919050565b6104e3611261565b6104ed600061128e565b565b60008061271061050060328561140d565b61050a9190611424565b9050600061271061051c601e8661140d565b6105269190611424565b90506105328183611446565b949350505050565b600060025460000361054c5750600090565b670de0b6b3a7640000306001600160a01b031663eb91d37e6040518163ffffffff1660e01b8152600401602060405180830381865afa158015610593573d6000803e3d6000fd5b505050506040513d601f19601f820116820180604052508101906105b79190611459565b6002546105c4919061140d565b6105ce9190611424565b905090565b6105db611261565b6002541561063a5760405162461bcd60e51b815260206004820152602160248201527f43616e206f6e6c792073656564207768656e20637572766520697320656d70746044820152607960f81b60648201526084015b60405180910390fd5b60008111801561064a5750600034115b6106aa5760405162461bcd60e51b815260206004820152602b60248201527f426f746820746f6b656e20616e642045544820616d6f756e7473206d7573742060448201526a626520706f73697469766560a81b6064820152608401610631565b6002819055346003556040516323b872dd60e01b8152336004820152306024820152604481018290527f00000000000000000000000000000000000000000000000000000000000000006001600160a01b0316906323b872dd906064016020604051808303816000875af1158015610726573d6000803e3d6000fd5b505050506040513d601f19601f8201168201806040525081019061074a9190611472565b6107665760405162461bcd60e51b815260040161063190611494565b50565b6107716112e0565b600082116107cd5760405162461bcd60e51b815260206004820152602360248201527f546f6b656e20616d6f756e74206d75737420626520677265617465722074686160448201526206e20360ec1b6064820152608401610631565b60025482111561082d5760405162461bcd60e51b815260206004820152602560248201527f43616e6e6f742073656c6c206d6f7265207468616e20737570706c7920696e20604482015264637572766560d81b6064820152608401610631565b600061083883610454565b90508181101561089c5760405162461bcd60e51b815260206004820152602960248201527f536c6970706167652070726f74656374696f6e3a20696e73756666696369656e6044820152681d08115512081bdd5d60ba1b6064820152608401610631565b6003548111156108ee5760405162461bcd60e51b815260206004820152601860248201527f496e73756666696369656e7420455448207265736572766500000000000000006044820152606401610631565b600064e8d4a510008460025461090491906113f4565b8560025461091291906113f4565b61091c919061140d565b6109269190611424565b60035461093391906113f4565b9050600061271061094560328461140d565b61094f9190611424565b90506000612710610961601e8561140d565b61096b9190611424565b9050856002600082825461097f91906113f4565b92505081905550826003600082825461099891906113f4565b90915550506040516323b872dd60e01b8152336004820152306024820152604481018790527f00000000000000000000000000000000000000000000000000000000000000006001600160a01b0316906323b872dd906064016020604051808303816000875af1158015610a10573d6000803e3d6000fd5b505050506040513d601f19601f82011682018060405250810190610a349190611472565b610a505760405162461bcd60e51b815260040161063190611494565b604051600090339086908381818185875af1925050503d8060008114610a92576040519150601f19603f3d011682016040523d82523d6000602084013e610a97565b606091505b5050905080610ae85760405162461bcd60e51b815260206004820152601d60248201527f455448207472616e7366657220746f2073656c6c6572206661696c65640000006044820152606401610631565b8215610bb35760007f00000000000000000000000000000000000000000000000000000000000000006001600160a01b03168460405160006040518083038185875af1925050503d8060008114610b5b576040519150601f19603f3d011682016040523d82523d6000602084013e610b60565b606091505b5050905080610bb15760405162461bcd60e51b815260206004820152601b60248201527f43726561746f7220666565207472616e73666572206661696c656400000000006044820152606401610631565b505b8115610c7e5760007f00000000000000000000000000000000000000000000000000000000000000006001600160a01b03168360405160006040518083038185875af1925050503d8060008114610c26576040519150601f19603f3d011682016040523d82523d6000602084013e610c2b565b606091505b5050905080610c7c5760405162461bcd60e51b815260206004820152601c60248201527f506c6174666f726d20666565207472616e73666572206661696c6564000000006044820152606401610631565b505b60408051888152602081018790529081018490526060810183905233907f6b17016c67d28f4cc3a653d895e3b1db09320d6852a46f95aa225059190f7dcd9060800160405180910390a25050505050610cd76001600055565b5050565b610ce36112e0565b60003411610d3d5760405162461bcd60e51b815260206004820152602160248201527f45544820616d6f756e74206d7573742062652067726561746572207468616e206044820152600360fc1b6064820152608401610631565b6000610d483461117a565b905081811015610daf5760405162461bcd60e51b815260206004820152602c60248201527f536c6970706167652070726f74656374696f6e3a20696e73756666696369656e60448201526b1d081d1bdad95b9cc81bdd5d60a21b6064820152608401610631565b6b033b2e3c9fd0803ce800000081600254610dca9190611446565b1115610e0d5760405162461bcd60e51b815260206004820152601260248201527145786365656473206d617820737570706c7960701b6044820152606401610631565b6000612710610e1d60323461140d565b610e279190611424565b90506000612710610e39601e3461140d565b610e439190611424565b9050600081610e5284346113f4565b610e5c91906113f4565b90508360026000828254610e709190611446565b925050819055508060036000828254610e899190611446565b909155505060405163a9059cbb60e01b8152336004820152602481018590527f00000000000000000000000000000000000000000000000000000000000000006001600160a01b03169063a9059cbb906044016020604051808303816000875af1158015610efb573d6000803e3d6000fd5b505050506040513d601f19601f82011682018060405250810190610f1f9190611472565b610f3b5760405162461bcd60e51b815260040161063190611494565b82156110065760007f00000000000000000000000000000000000000000000000000000000000000006001600160a01b03168460405160006040518083038185875af1925050503d8060008114610fae576040519150601f19603f3d011682016040523d82523d6000602084013e610fb3565b606091505b50509050806110045760405162461bcd60e51b815260206004820152601b60248201527f43726561746f7220666565207472616e73666572206661696c656400000000006044820152606401610631565b505b81156110d15760007f00000000000000000000000000000000000000000000000000000000000000006001600160a01b03168360405160006040518083038185875af1925050503d8060008114611079576040519150601f19603f3d011682016040523d82523d6000602084013e61107e565b606091505b50509050806110cf5760405162461bcd60e51b815260206004820152601c60248201527f506c6174666f726d20666565207472616e73666572206661696c6564000000006044820152606401610631565b505b60408051348152602081018690529081018490526060810183905233907fca1d1d2c3f24bb3f0c4ad90bd9823d2465052996d73438c962e227ea67a206d89060800160405180910390a2505050506107666001600055565b600060025460000361115757670de0b6b3a764000061114c64e8d4a5100061130a565b6105c490600261140d565b61116f60025460035461116a9190611424565b61130a565b6105ce90600261140d565b60008160000361118c57506000919050565b6000611197836104ef565b6111a190846113f4565b90506000816003546111b39190611446565b905060006111c961116a64e8d4a510008461140d565b905060025481111561121e576002546111e290826113f4565b93506b033b2e3c9fd0803ce8000000846002546111ff9190611446565b111561121e576002546104d0906b033b2e3c9fd0803ce80000006113f4565b505050919050565b61122e611261565b6001600160a01b03811661125857604051631e4fbdf760e01b815260006004820152602401610631565b6107668161128e565b6001546001600160a01b031633146104ed5760405163118cdaa760e01b8152336004820152602401610631565b600180546001600160a01b038381166001600160a01b0319831681179093556040519116919082907f8be0079c531659141344cd1fd0a4f28419497f9722a3daafe3b4186f6b6457e090600090a35050565b60026000540361130357604051633ee5aeb560e01b815260040160405180910390fd5b6002600055565b60008160000361131c57506000919050565b50806000600261132d836001611446565b6113379190611424565b90505b8181101561136d579050806002816113528186611424565b61135c9190611446565b6113669190611424565b905061133a565b50919050565b60006020828403121561138557600080fd5b5035919050565b6000806040838503121561139f57600080fd5b50508035926020909101359150565b6000602082840312156113c057600080fd5b81356001600160a01b03811681146113d757600080fd5b9392505050565b634e487b7160e01b600052601160045260246000fd5b81810381811115611407576114076113de565b92915050565b8082028115828204841417611407576114076113de565b60008261144157634e487b7160e01b600052601260045260246000fd5b500490565b80820180821115611407576114076113de565b60006020828403121561146b57600080fd5b5051919050565b60006020828403121561148457600080fd5b815180151581146113d757600080fd5b602080825260159082015274151bdad95b881d1c985b9cd9995c8819985a5b1959605a1b60408201526060019056fea2646970667358221220be0b330b78d59bda22310df7d82da1b24030e4faf5deaed22d28d948ad15558364736f6c63430008140033",
  "linkReferences": {},
  "deployedLinkReferences": {}
}